{
  "contractName": "Award",
  "abi": [
    {
      "constant": true,
      "inputs": [
        {
          "name": "",
          "type": "uint256"
        }
      ],
      "name": "institutions",
      "outputs": [
        {
          "name": "",
          "type": "address"
        }
      ],
      "payable": false,
      "stateMutability": "view",
      "type": "function",
      "signature": "0xc3b59d00"
    },
    {
      "constant": true,
      "inputs": [],
      "name": "deployer",
      "outputs": [
        {
          "name": "",
          "type": "address"
        }
      ],
      "payable": false,
      "stateMutability": "view",
      "type": "function",
      "signature": "0xd5f39488"
    },
    {
      "inputs": [],
      "payable": false,
      "stateMutability": "nonpayable",
      "type": "constructor",
      "signature": "constructor"
    },
    {
      "anonymous": false,
      "inputs": [
        {
          "indexed": false,
          "name": "student",
          "type": "address"
        },
        {
          "indexed": false,
          "name": "institution",
          "type": "address"
        },
        {
          "indexed": false,
          "name": "file_hash",
          "type": "string"
        }
      ],
      "name": "degree_award",
      "type": "event",
      "signature": "0xbcb9f0e84f97b03e7d97682e38c13cad45af4ea2477d579326d39aa64b1deca5"
    },
    {
      "constant": false,
      "inputs": [
        {
          "name": "institutionAddr",
          "type": "address"
        }
      ],
      "name": "addInstitution",
      "outputs": [],
      "payable": false,
      "stateMutability": "nonpayable",
      "type": "function",
      "signature": "0xaf5b2291"
    },
    {
      "constant": false,
      "inputs": [
        {
          "name": "student_addr",
          "type": "address"
        },
        {
          "name": "file_hash",
          "type": "string"
        }
      ],
      "name": "publish",
      "outputs": [],
      "payable": true,
      "stateMutability": "payable",
      "type": "function",
      "signature": "0xba68a2bf"
    }
  ],
  "bytecode": "0x608060405234801561001057600080fd5b5033600260006101000a81548173ffffffffffffffffffffffffffffffffffffffff021916908373ffffffffffffffffffffffffffffffffffffffff1602179055506106b6806100616000396000f3fe608060405260043610610062576000357c0100000000000000000000000000000000000000000000000000000000900463ffffffff168063af5b229114610067578063ba68a2bf146100b8578063c3b59d0014610193578063d5f394881461020e575b600080fd5b34801561007357600080fd5b506100b66004803603602081101561008a57600080fd5b81019080803573ffffffffffffffffffffffffffffffffffffffff169060200190929190505050610265565b005b610191600480360360408110156100ce57600080fd5b81019080803573ffffffffffffffffffffffffffffffffffffffff1690602001909291908035906020019064010000000081111561010b57600080fd5b82018360208201111561011d57600080fd5b8035906020019184600183028401116401000000008311171561013f57600080fd5b91908080601f016020809104026020016040519081016040528093929190818152602001838380828437600081840152601f19601f820116905080830192505050505050509192919290505050610393565b005b34801561019f57600080fd5b506101cc600480360360208110156101b657600080fd5b8101908080359060200190929190505050610626565b604051808273ffffffffffffffffffffffffffffffffffffffff1673ffffffffffffffffffffffffffffffffffffffff16815260200191505060405180910390f35b34801561021a57600080fd5b50610223610664565b604051808273ffffffffffffffffffffffffffffffffffffffff1673ffffffffffffffffffffffffffffffffffffffff16815260200191505060405180910390f35b600260009054906101000a900473ffffffffffffffffffffffffffffffffffffffff1673ffffffffffffffffffffffffffffffffffffffff163373ffffffffffffffffffffffffffffffffffffffff1614151561032a576040517f08c379a00000000000000000000000000000000000000000000000000000000081526004018080602001828103825260208152602001807f54686973206973206e6f7420746865206465706c6f796572206163636f756e7481525060200191505060405180910390fd5b60018190806001815401808255809150509060018203906000526020600020016000909192909190916101000a81548173ffffffffffffffffffffffffffffffffffffffff021916908373ffffffffffffffffffffffffffffffffffffffff1602179055505050565b33600080905060008090505b60018054905081101561042b578273ffffffffffffffffffffffffffffffffffffffff166001828154811015156103d257fe5b9060005260206000200160009054906101000a900473ffffffffffffffffffffffffffffffffffffffff1673ffffffffffffffffffffffffffffffffffffffff16141561041e57600191505b808060010191505061039f565b50600115158115151415156104ce576040517f08c379a00000000000000000000000000000000000000000000000000000000081526004018080602001828103825260228152602001807f54686973206973206e6f7420616e20696e737469747574696f6e206163636f7581526020017f6e7400000000000000000000000000000000000000000000000000000000000081525060400191505060405180910390fd5b60003390508073ffffffffffffffffffffffffffffffffffffffff166108fc60009081150290604051600060405180830381858888f1935050505015801561051a573d6000803e3d6000fd5b507fbcb9f0e84f97b03e7d97682e38c13cad45af4ea2477d579326d39aa64b1deca5858286604051808473ffffffffffffffffffffffffffffffffffffffff1673ffffffffffffffffffffffffffffffffffffffff1681526020018373ffffffffffffffffffffffffffffffffffffffff1673ffffffffffffffffffffffffffffffffffffffff16815260200180602001828103825283818151815260200191508051906020019080838360005b838110156105e35780820151818401526020810190506105c8565b50505050905090810190601f1680156106105780820380516001836020036101000a031916815260200191505b5094505050505060405180910390a15050505050565b60018181548110151561063557fe5b906000526020600020016000915054906101000a900473ffffffffffffffffffffffffffffffffffffffff1681565b600260009054906101000a900473ffffffffffffffffffffffffffffffffffffffff168156fea165627a7a723058209e572202369bb853a811e66d0987e750b5d6b6a8bd5cecf873bc9fe5d7b044df0029",
  "source": "pragma solidity >=0.5.0 <0.7.0;\r\n\r\ncontract Award{\r\n\r\n\taddress payable institution; // account address of institution\r\n\r\n\tevent degree_award(address student, address payable institution, string file_hash);\r\n\r\n\taddress[] public institutions;\r\n\r\n\t\r\n\taddress public deployer;\r\n\r\n\tconstructor () public{\r\n\t    deployer = msg.sender;\r\n\t}\r\n\r\n\tmodifier onlyInstitution(address institutionA){\r\n\t    bool isInstitution =false;\r\n\t\tfor(uint i = 0; i < institutions.length; i ++){\r\n\t\t\tif (institutions[i] == institutionA){\r\n\t\t\t\tisInstitution = true;\r\n\t\t\t}\r\n\t\t}\r\n\t\trequire(isInstitution == true, \"This is not an institution account\");\r\n\t\t_;\r\n\t}\r\n\tmodifier onlyDeployer(){\r\n\t    require(msg.sender == deployer, \"This is not the deployer account\");\r\n\t    _;\r\n\t}\r\n\t\r\n\tfunction addInstitution(address institutionAddr) public onlyDeployer{\r\n\t    institutions.push(institutionAddr);\r\n\t}\r\n\r\n\tfunction publish(address student_addr,string memory file_hash)\r\n\t\tpublic payable onlyInstitution(msg.sender) {\r\n\t\t\taddress payable institution_addr = msg.sender;\r\n\t\t\tinstitution_addr.transfer(0);\r\n\t\t\temit degree_award(student_addr, institution_addr, file_hash);\r\n\t}\r\n\r\n}",
  "sourcePath": "E:/FinalYearProject/degree-authentication/contracts/Award.sol",
  "compiler": {
    "name": "solc",
    "version": "0.5.0+commit.1d4f565a.Emscripten.clang"
  },
  "schemaVersion": "3.0.6",
  "updatedAt": "2019-05-03T13:45:10.844Z",
  "devdoc": {
    "methods": {}
  },
  "userdoc": {
    "methods": {}
  }
}